:100000000C9446000C9465000C9465000C946500FB
:100010000C9465000C9465000C9465000C946500CC
:100020000C9465000C9465000C9465000C946500BC
:100030000C9465000C94E3000C9465000C9465002E
:100040000C9465000C9465000C9465000C9465009C
:100050000C9465000C9465000C9465000C9465008C
:100060000C9465000C9465000C9465000C9465007C
:100070000C9465000C9465000C9465000C9465006C
:100080000C9465000C9465000C94650011241FBE4F
:10009000CFEFD0E4DEBFCDBF11E0A0E0B1E0EAE9F0
:1000A000F6E000E00BBF02C007900D92A631B10749
:1000B000D9F721E0A6E1B1E001C01D92AE31B2074F
:1000C000E1F70E94D5020C944B030C940000CF93EF
:1000D000DF9300D000D0CDB7DEB769837A838B83FE
:1000E0009C8389819A81AB81BC818093000190932C
:1000F0000101A0930201B09303018091000190914E
:100100000101A0910201B091030180931701909326
:100110001801A0931901B0931A0100000F900F90DD
:100120000F900F90DF91CF910895CF93DF93CDB7CC
:10013000DEB781E890E02BE0FC01208388E890E0C6
:100140002DE730E0FC01318320838FE690E022E050
:10015000FC01208384E890E0FC01118210828091F0
:10016000000190910101A0910201B09103018093DF
:10017000170190931801A0931901B0931A018FE50C
:1001800090E02FE530E0F90120812068FC01208318
:100190000000DF91CF910895CF93DF93CDB7DEB705
:1001A00081E890E0FC0110820000DF91CF9108957A
:1001B000CF93DF93CDB7DEB781E0809316010000C7
:1001C000DF91CF9108951F920F9200905F000F92E0
:1001D000112400905B000F922F933F934F935F93F6
:1001E0006F937F938F939F93AF93BF93EF93FF93FF
:1001F000CF93DF93CDB7DEB78091170190911801AF
:10020000A0911901B0911A010197A109B109809338
:10021000170190931801A0931901B0931A018091CE
:10022000170190911801A0911901B0911A01892B21
:100230008A2B8B2B91F40E94D80080910001909121
:100240000101A0910201B0910301809317019093E5
:100250001801A0931901B0931A010000DF91CF910A
:10026000FF91EF91BF91AF919F918F917F916F918E
:100270005F914F913F912F910F9000925B000F90F3
:1002800000925F000F901F901895CF93DF9300D0DE
:100290001F92CDB7DEB789837B836A8389818A30D9
:1002A00031F48A819B81BC018DE00E94450180EC84
:1002B00090E0FC018081882F90E080729927892B43
:1002C000B1F386EC90E02981FC01208380E090E08E
:1002D0000F900F900F90DF91CF910895CF93DF9300
:1002E000CDB7DEB72C970FB6F894DEBF0FBECDBFEB
:1002F0006D837E838F83988729873A874B875C87B6
:100300008D819E81AF81B88529853A854B855C8535
:10031000BC01CD010E942903DC01CB0189839A83B2
:10032000AB83BC8389819A81AB81BC81892B8A2B69
:100330008B2B29F489859A85AB85BC8511C089856D
:100340009A85AB85BC858D839E83AF83B887898171
:100350009A81AB81BC8189879A87AB87BC87D0CFD4
:10036000BC01CD012C960FB6F894DEBF0FBECDBFF9
:10037000DF91CF910895CF93DF931F92CDB7DEB772
:1003800080E290E0FC0180818095898380911C014E
:1003900090911D018130910571F08130910520F01F
:1003A000029709F481C091C081E090E090931D0113
:1003B00080931C018AC089818130D9F48091140115
:1003C000882F90E08F7199274A9761F080911401EE
:1003D00086958061809314018091150186958061D6
:1003E0008093150182E090E090931D0180931C01A1
:1003F0006CC08981823009F580911401882F90E0CA
:100400008F7199270B9791F080911401882F90E0BC
:10041000880F991F81608093140180911501882FA6
:1004200090E0880F991F81608093150182E090E031
:1004300090931D0180931C0148C089818430A9F4E8
:10044000809112018F3051F0809112018695809336
:1004500012018091130186958093130182E090E050
:1004600090931D0180931C0130C089818830A9F4CC
:1004700080911201803F51F080911201880F80938A
:10048000120180911301880F8093130182E090E0A4
:1004900090931D0180931C0118C081E090E090931F
:1004A0001D0180931C0111C08981882339F481E0EA
:1004B00090E090931D0180931C0107C082E090E0C2
:1004C00090931D0180931C0100C000000F90DF91EC
:1004D000CF910895CF93DF9300D01F92CDB7DEB7B1
:1004E0008B831A82198231C080911B01882331F4D9
:1004F00088E290E028E0FC01208305C088E290E0DB
:1005000020E2FC01208388E290E028E230E0F9015B
:100510002081422F2B81222F30E0098002C03595A7
:1005200027950A94E2F72170242BFC01208388E2AE
:1005300090E028E230E0F90120812260FC01208374
:1005400089819A8101969A83898389819A81089702
:100550005CF280911B01882351F488E290E028E24C
:1005600030E0F90120812460FC01208309C088E289
:1005700090E028E230E0F90120812061FC01208335
:1005800088E290E0FC01108280911B01882321F415
:1005900081E080931B0102C010921B0100000F90AC
:1005A0000F900F90DF91CF910895CF93DF93CDB748
:1005B000DEB781E290E0FC01108282E290E02FEF52
:1005C000FC01208387E290E02FEFFC01208388E28A
:1005D00090E0FC0110828AE290E02FEFFC01208382
:1005E0008BE290E0FC01108288E290E02091120101
:1005F000FC0120838BE290E020911401FC01208318
:1006000062E070E080E090E00E9467000E94950048
:10061000809112010E946A02809114010E946A0274
:100620000000809116018823E1F310921601809159
:1006300013010E946A02809115010E946A020E94C1
:10064000BB010000809116018823E1F3109216018E
:10065000DFCFA1E21A2EAA1BBB1BFD010DC0AA1FF2
:10066000BB1FEE1FFF1FA217B307E407F50720F01B
:10067000A21BB30BE40BF50B661F771F881F991F96
:100680001A9469F760957095809590959B01AC01DF
:0A069000BD01CF010895F894FFCFDB
:10069A000100000000000002000000004501000007
:0606AA0000003C24151BBA
:00000001FF
